:1000000020EF02F0F76A140FF66E000EF7220900D7
:10001000F5501200280C010659554B4C454E4959D4
:100020004F520A000C2052616B616D6C6172692045
:10003000476972696E697A000C20202025640000EF
:100040000C202020256400000C20202025640000C6
:100050000C202020256400000C20546F706C616D12
:10006000612049736C656D6900000C2043696B6108
:10007000726D612049736C656D6900000C20202051
:10008000536F6E7563203D20256400000C202020F6
:1000900020536F6E7563203D202564000C202020C6
:1000A000202564000C202020202564000C20202026
:1000B000202564000C20202020256400EA6A100E10
:1000C000E96EEF500DE0060E016E006A002EFED7BD
:1000D000012EFBD77B0E006E002EFED7EF2EF3D73E
:1000E00012001738F00B006E0F0E8A1400108A6E83
:1000F00000008A80020E006E002EFED700D00000A5
:100100008A9012008150006E00380F0B016E1200B1
:100110000F0E9314F009936E8A8400008A80000009
:10012000F1DF01C017F08A9000008A8000D000D073
:100130000000E8DF01C016F08A900F0E9314936E52
:100140001738006EF00E001600501610016EAEEF5C
:1001500000F09390939293948A92DAD701C016F0AC
:1001600001BEFBD78A9214B08A8200008A940000F4
:100170008A901538166E0F0E161616C017F0B1DFDE
:1001800015500F0B166E176EACDF12000F0E931486
:10019000936E9390939293948A928A948A900F0E7E
:1001A000106E8CDF010E096E0950030808E3030E80
:1001B000176E97DF050E106E81DF092AF5D7020E44
:1001C000176E8FDF050E106E79DF096A095003087C
:1001D0000EE3036A0950F2CF0AF0F29E13DF0ABE63
:1001E000F28E0A6E146A156EB4DF092AEFD730EF6B
:1001F00002F0112C01D003D0400E126E01D0126A11
:10020000010E105C122612508009136E146A156ECE
:10021000A0DF12000F50070A07E00B0A0AE0060AE7
:1002200010E0020A14E018D0010E106E116EE1DF2A
:1002300018D0146A010E156E8CDF020E106E3EDFB0
:1002400010D0010E106E020E116ED3DF0AD0146AA8
:10025000100E156E7EDF05D0010E146E0FC015F066
:1002600078DF12000900F5520CE0F6CF09F0F7CF65
:100270000AF0F5CF0FF0CEDF09C0F6FF0AC0F7FF96
:10028000F1D71200095205E0146A0F0E156E61DFF6
:1002900004D0146A0C0E156E5CDF12000900F6CF54
:1002A0000AF0F7CF0BF0F5CF0FF0B4DF0AC0F6FF7E
:1002B0000BC0F7FF092EF2D712001050016A0F5C35
:1002C00003E20FC000F00CD0006A080E116E0F366A
:1002D00000361050005CD8B0006E0136112EF7D7F2
:1002E0001200200E0AA8300E0B6E09C000F009AEF5
:1002F00008D0001E002A00C009F02D0E0B6E0A8ED9
:100300000A80015009C00FF0640E106ED6DF00C0E5
:1003100009F0300E01240C6E09C00FF00A0E106EA9
:10032000CCDF300E00240E6E300E01240D6E0BC09B
:1003300000F0300E0C5C04E00A820ABE0A8412D07F
:100340000BC00CF0200E0B6E300E0D5C04E00A802A
:100350000ABE0A8207D0D8A40A8004E10CC00DF0BE
:10036000200E0C6E0AB405D00AB206D00AB007D02F
:1003700009D00BC00FF04EDF0CC00FF04BDF0DC0EB
:100380000FF048DF0EC00FF045DF1200928080A012
:1003900027D0052A928080B0FDD7640E106E8EDEC5
:1003A000096A70DF9C0EF66E000EF76E050E096E80
:1003B00075DF05C009F0180E0A6E93DF05500A08B4
:1003C0000CE1056AA40EF66E000EF76E050E096EBE
:1003D00065DF096A180E0A6E84DF928080B0FDD74F
:1003E000928280A229D00506928280B2FDD7640E47
:1003F000106E64DE096A46DFAC0EF66E000EF76E14
:10040000050E096E4BDF05C009F0180E0A6E69DF94
:100410000550FF080EE1090E056EB40EF66E000ED3
:10042000F76E050E096E3ADF090E096E180E0A6E98
:1004300058DF928280B2FDD7928880A8A7D7120099
:10044000F86AD09E046A056A066AC150C00B0F099B
:10045000C16E070EB46E000E936EFF0E926E96D6AE
:10046000086A0850010844E3146A010E156E71DE33
:10047000040E106E010E116EBCDE180EF66E000E2C
:10048000F76EF0DE020E096EFA0E106E17DE092E00
:10049000FBD7070E106E020E116EABDE2E0E0F6E26
:1004A000B9DE020E096EFA0E106E08DE092EFBD7B9
:1004B0002E0E0F6EAFDE020E096EFA0E106EFEDD0E
:1004C000092EFBD72E0E0F6EA5DE020E096EFA0E58
:1004D000106EF4DD092EFBD72E0E0F6E9BDE140E70
:1004E000096EFA0E106EEADD092EFBD7082AB9D77D
:1004F000010E096EC7DE240EF66E000EF76EB2DE38
:10050000020E096EFA0E106ED9DD092EFBD792800D
:1005100080A027D0042A928080B0FDD7640E106E90
:10052000CDDD096AAFDE380EF66E000EF76E040EF2
:10053000096EB4DE04C009F0180E0A6ED2DE045053
:100540000A080CE1046A400EF66E000EF76E040E07
:10055000096EA4DE096A180E0A6EC3DE928080B0AE
:10056000FDD7928280A229D00406928280B2FDD764
:10057000640E106EA3DD096A85DE480EF66E000E6D
:10058000F76E040E096E8ADE04C009F0180E0A6EBA
:10059000A8DE05500A080EE1090E056E500EF66E33
:1005A000000EF76E040E096E79DE090E096E180E44
:1005B0000A6E97DE928280B2FDD7928480A40BD01F
:1005C0002B0E076E580EF66E000EF76E4BDE640EA5
:1005D000106E74DDDBDE928680A60BD02D0E076ECA
:1005E0006A0EF66E000EF76E3DDE640E106E66DD6E
:1005F000CDDE928880A835D007502B0817E1055032
:100600000424066E7C0EF66E000EF76E0C0E096E5C
:1006100045DE06C009F0180E0A6E63DE080E096E8C
:10062000FA0E106E4BDD092EFBD71BD007502D089C
:1006300017E10550045C066E8C0EF66E000EF76E28
:100640000D0E096E2BDE06C009F0180E0A6E49DE8B
:10065000080E096EFA0E106E31DD092EFBD701D09F
:06066000CBD755D70300C3
:020000040030CA
:0E0000003FCF3E1E008781000FC00FE00F4073
:00000001FF
;PIC18F2550
;CRC=FD95  CREATED="19-May-18 00:34"
